{
  "contractName": "TokenICO",
  "abi": [
    {
      "inputs": [
        {
          "internalType": "contract MyToken",
          "name": "_token",
          "type": "address"
        },
        {
          "internalType": "uint256",
          "name": "_rate",
          "type": "uint256"
        },
        {
          "internalType": "uint256",
          "name": "duration",
          "type": "uint256"
        }
      ],
      "stateMutability": "nonpayable",
      "type": "constructor"
    },
    {
      "inputs": [
        {
          "internalType": "address",
          "name": "owner",
          "type": "address"
        }
      ],
      "name": "OwnableInvalidOwner",
      "type": "error"
    },
    {
      "inputs": [
        {
          "internalType": "address",
          "name": "account",
          "type": "address"
        }
      ],
      "name": "OwnableUnauthorizedAccount",
      "type": "error"
    },
    {
      "anonymous": false,
      "inputs": [
        {
          "indexed": true,
          "internalType": "address",
          "name": "previousOwner",
          "type": "address"
        },
        {
          "indexed": true,
          "internalType": "address",
          "name": "newOwner",
          "type": "address"
        }
      ],
      "name": "OwnershipTransferred",
      "type": "event"
    },
    {
      "anonymous": false,
      "inputs": [
        {
          "indexed": true,
          "internalType": "address",
          "name": "buyer",
          "type": "address"
        },
        {
          "indexed": false,
          "internalType": "uint256",
          "name": "amount",
          "type": "uint256"
        }
      ],
      "name": "TokensPurchased",
      "type": "event"
    },
    {
      "inputs": [],
      "name": "endICO",
      "outputs": [
        {
          "internalType": "uint256",
          "name": "",
          "type": "uint256"
        }
      ],
      "stateMutability": "view",
      "type": "function"
    },
    {
      "inputs": [],
      "name": "owner",
      "outputs": [
        {
          "internalType": "address",
          "name": "",
          "type": "address"
        }
      ],
      "stateMutability": "view",
      "type": "function"
    },
    {
      "inputs": [],
      "name": "rate",
      "outputs": [
        {
          "internalType": "uint256",
          "name": "",
          "type": "uint256"
        }
      ],
      "stateMutability": "view",
      "type": "function"
    },
    {
      "inputs": [],
      "name": "renounceOwnership",
      "outputs": [],
      "stateMutability": "nonpayable",
      "type": "function"
    },
    {
      "inputs": [],
      "name": "token",
      "outputs": [
        {
          "internalType": "contract MyToken",
          "name": "",
          "type": "address"
        }
      ],
      "stateMutability": "view",
      "type": "function"
    },
    {
      "inputs": [],
      "name": "tokensSold",
      "outputs": [
        {
          "internalType": "uint256",
          "name": "",
          "type": "uint256"
        }
      ],
      "stateMutability": "view",
      "type": "function"
    },
    {
      "inputs": [
        {
          "internalType": "address",
          "name": "newOwner",
          "type": "address"
        }
      ],
      "name": "transferOwnership",
      "outputs": [],
      "stateMutability": "nonpayable",
      "type": "function"
    },
    {
      "inputs": [],
      "name": "buyTokens",
      "outputs": [],
      "stateMutability": "payable",
      "type": "function"
    },
    {
      "inputs": [],
      "name": "endSale",
      "outputs": [],
      "stateMutability": "nonpayable",
      "type": "function"
    }
  ],
  "bytecode": "0x608060405234801562000010575f80fd5b5060405162000fc538038062000fc5833981810160405281019062000036919062000291565b335f73ffffffffffffffffffffffffffffffffffffffff168173ffffffffffffffffffffffffffffffffffffffff1603620000aa575f6040517f1e4fbdf7000000000000000000000000000000000000000000000000000000008152600401620000a19190620002fb565b60405180910390fd5b620000bb816200012060201b60201c565b508260015f6101000a81548173ffffffffffffffffffffffffffffffffffffffff021916908373ffffffffffffffffffffffffffffffffffffffff16021790555081600281905550804262000111919062000343565b6003819055505050506200037d565b5f805f9054906101000a900473ffffffffffffffffffffffffffffffffffffffff169050815f806101000a81548173ffffffffffffffffffffffffffffffffffffffff021916908373ffffffffffffffffffffffffffffffffffffffff1602179055508173ffffffffffffffffffffffffffffffffffffffff168173ffffffffffffffffffffffffffffffffffffffff167f8be0079c531659141344cd1fd0a4f28419497f9722a3daafe3b4186f6b6457e060405160405180910390a35050565b5f80fd5b5f73ffffffffffffffffffffffffffffffffffffffff82169050919050565b5f6200021082620001e5565b9050919050565b5f620002238262000204565b9050919050565b620002358162000217565b811462000240575f80fd5b50565b5f8151905062000253816200022a565b92915050565b5f819050919050565b6200026d8162000259565b811462000278575f80fd5b50565b5f815190506200028b8162000262565b92915050565b5f805f60608486031215620002ab57620002aa620001e1565b5b5f620002ba8682870162000243565b9350506020620002cd868287016200027b565b9250506040620002e0868287016200027b565b9150509250925092565b620002f58162000204565b82525050565b5f602082019050620003105f830184620002ea565b92915050565b7f4e487b71000000000000000000000000000000000000000000000000000000005f52601160045260245ffd5b5f6200034f8262000259565b91506200035c8362000259565b925082820190508082111562000377576200037662000316565b5b92915050565b610c3a806200038b5f395ff3fe608060405260043610610085575f3560e01c8063715018a611610058578063715018a61461011d5780638da5cb5b14610133578063d0febe4c1461015d578063f2fde38b14610167578063fc0c546a1461018f57610085565b80632c4e722e14610089578063380d831b146100b35780634f248409146100c9578063518ab2a8146100f3575b5f80fd5b348015610094575f80fd5b5061009d6101b9565b6040516100aa9190610801565b60405180910390f35b3480156100be575f80fd5b506100c76101bf565b005b3480156100d4575f80fd5b506100dd610375565b6040516100ea9190610801565b60405180910390f35b3480156100fe575f80fd5b5061010761037b565b6040516101149190610801565b60405180910390f35b348015610128575f80fd5b50610131610381565b005b34801561013e575f80fd5b50610147610394565b6040516101549190610859565b60405180910390f35b6101656103bb565b005b348015610172575f80fd5b5061018d600480360381019061018891906108a0565b6105f1565b005b34801561019a575f80fd5b506101a3610675565b6040516101b09190610926565b60405180910390f35b60025481565b6101c761069a565b60035442101561020c576040517f08c379a000000000000000000000000000000000000000000000000000000000815260040161020390610999565b60405180910390fd5b5f60015f9054906101000a900473ffffffffffffffffffffffffffffffffffffffff1673ffffffffffffffffffffffffffffffffffffffff166370a08231306040518263ffffffff1660e01b81526004016102679190610859565b602060405180830381865afa158015610282573d5f803e3d5ffd5b505050506040513d601f19601f820116820180604052508101906102a691906109e1565b90505f8111156103555760015f9054906101000a900473ffffffffffffffffffffffffffffffffffffffff1673ffffffffffffffffffffffffffffffffffffffff1663a9059cbb6102f5610394565b836040518363ffffffff1660e01b8152600401610313929190610a0c565b6020604051808303815f875af115801561032f573d5f803e3d5ffd5b505050506040513d601f19601f820116820180604052508101906103539190610a68565b505b61035d610394565b73ffffffffffffffffffffffffffffffffffffffff16ff5b60035481565b60045481565b61038961069a565b6103925f610721565b565b5f805f9054906101000a900473ffffffffffffffffffffffffffffffffffffffff16905090565b60035442106103ff576040517f08c379a00000000000000000000000000000000000000000000000000000000081526004016103f690610add565b60405180910390fd5b5f6002543461040e9190610b28565b90508060015f9054906101000a900473ffffffffffffffffffffffffffffffffffffffff1673ffffffffffffffffffffffffffffffffffffffff166370a08231306040518263ffffffff1660e01b815260040161046b9190610859565b602060405180830381865afa158015610486573d5f803e3d5ffd5b505050506040513d601f19601f820116820180604052508101906104aa91906109e1565b10156104eb576040517f08c379a00000000000000000000000000000000000000000000000000000000081526004016104e290610bb3565b60405180910390fd5b60015f9054906101000a900473ffffffffffffffffffffffffffffffffffffffff1673ffffffffffffffffffffffffffffffffffffffff1663a9059cbb33836040518363ffffffff1660e01b8152600401610547929190610a0c565b6020604051808303815f875af1158015610563573d5f803e3d5ffd5b505050506040513d601f19601f820116820180604052508101906105879190610a68565b508060045f8282546105999190610bd1565b925050819055503373ffffffffffffffffffffffffffffffffffffffff167f8f28852646c20cc973d3a8218f7eefed58c25c909f78f0265af4818c3d4dc271826040516105e69190610801565b60405180910390a250565b6105f961069a565b5f73ffffffffffffffffffffffffffffffffffffffff168173ffffffffffffffffffffffffffffffffffffffff1603610669575f6040517f1e4fbdf70000000000000000000000000000000000000000000000000000000081526004016106609190610859565b60405180910390fd5b61067281610721565b50565b60015f9054906101000a900473ffffffffffffffffffffffffffffffffffffffff1681565b6106a26107e2565b73ffffffffffffffffffffffffffffffffffffffff166106c0610394565b73ffffffffffffffffffffffffffffffffffffffff161461071f576106e36107e2565b6040517f118cdaa70000000000000000000000000000000000000000000000000000000081526004016107169190610859565b60405180910390fd5b565b5f805f9054906101000a900473ffffffffffffffffffffffffffffffffffffffff169050815f806101000a81548173ffffffffffffffffffffffffffffffffffffffff021916908373ffffffffffffffffffffffffffffffffffffffff1602179055508173ffffffffffffffffffffffffffffffffffffffff168173ffffffffffffffffffffffffffffffffffffffff167f8be0079c531659141344cd1fd0a4f28419497f9722a3daafe3b4186f6b6457e060405160405180910390a35050565b5f33905090565b5f819050919050565b6107fb816107e9565b82525050565b5f6020820190506108145f8301846107f2565b92915050565b5f73ffffffffffffffffffffffffffffffffffffffff82169050919050565b5f6108438261081a565b9050919050565b61085381610839565b82525050565b5f60208201905061086c5f83018461084a565b92915050565b5f80fd5b61087f81610839565b8114610889575f80fd5b50565b5f8135905061089a81610876565b92915050565b5f602082840312156108b5576108b4610872565b5b5f6108c28482850161088c565b91505092915050565b5f819050919050565b5f6108ee6108e96108e48461081a565b6108cb565b61081a565b9050919050565b5f6108ff826108d4565b9050919050565b5f610910826108f5565b9050919050565b61092081610906565b82525050565b5f6020820190506109395f830184610917565b92915050565b5f82825260208201905092915050565b7f49434f206973207374696c6c20616374697665000000000000000000000000005f82015250565b5f61098360138361093f565b915061098e8261094f565b602082019050919050565b5f6020820190508181035f8301526109b081610977565b9050919050565b6109c0816107e9565b81146109ca575f80fd5b50565b5f815190506109db816109b7565b92915050565b5f602082840312156109f6576109f5610872565b5b5f610a03848285016109cd565b91505092915050565b5f604082019050610a1f5f83018561084a565b610a2c60208301846107f2565b9392505050565b5f8115159050919050565b610a4781610a33565b8114610a51575f80fd5b50565b5f81519050610a6281610a3e565b92915050565b5f60208284031215610a7d57610a7c610872565b5b5f610a8a84828501610a54565b91505092915050565b7f49434f2068617320656e646564000000000000000000000000000000000000005f82015250565b5f610ac7600d8361093f565b9150610ad282610a93565b602082019050919050565b5f6020820190508181035f830152610af481610abb565b9050919050565b7f4e487b71000000000000000000000000000000000000000000000000000000005f52601160045260245ffd5b5f610b32826107e9565b9150610b3d836107e9565b9250828202610b4b816107e9565b91508282048414831517610b6257610b61610afb565b5b5092915050565b7f4e6f7420656e6f75676820746f6b656e7320696e2074686520726573657276655f82015250565b5f610b9d60208361093f565b9150610ba882610b69565b602082019050919050565b5f6020820190508181035f830152610bca81610b91565b9050919050565b5f610bdb826107e9565b9150610be6836107e9565b9250828201905080821115610bfe57610bfd610afb565b5b9291505056fea2646970667358221220f119c70f0f5ef8dbea642bb2dc216b73b0488edba4f48247d9625bbea230640864736f6c63430008150033",
  "immutableReferences": {},
  "source": "// SPDX-License-Identifier: MIT\r\npragma solidity ^0.8.0;\r\n\r\nimport \"./MyToken.sol\";\r\nimport \"@openzeppelin/contracts/access/Ownable.sol\";\r\n\r\ncontract TokenICO is Ownable {\r\n    MyToken public token;\r\n    uint256 public rate;\r\n    uint256 public endICO;\r\n    uint256 public tokensSold;\r\n\r\n    event TokensPurchased(address indexed buyer, uint256 amount);\r\n\r\n    constructor(MyToken _token, uint256 _rate, uint256 duration) Ownable(msg.sender) {\r\n        token = _token;\r\n        rate = _rate;\r\n        endICO = block.timestamp + duration;\r\n    }\r\n\r\n    modifier icoActive() {\r\n        require(block.timestamp < endICO, \"ICO has ended\");\r\n        _;\r\n    }\r\n\r\n    function buyTokens() public payable icoActive {\r\n        uint256 tokenAmount = msg.value * rate;\r\n        require(token.balanceOf(address(this)) >= tokenAmount, \"Not enough tokens in the reserve\");\r\n\r\n        token.transfer(msg.sender, tokenAmount);\r\n        tokensSold += tokenAmount;\r\n\r\n        emit TokensPurchased(msg.sender, tokenAmount);\r\n    }\r\n\r\n    function endSale() public onlyOwner {\r\n        require(block.timestamp >= endICO, \"ICO is still active\");\r\n\r\n        uint256 remainingTokens = token.balanceOf(address(this));\r\n        if (remainingTokens > 0) {\r\n            token.transfer(owner(), remainingTokens);\r\n        }\r\n\r\n        selfdestruct(payable(owner()));\r\n    }\r\n}\r\n",
  "sourcePath": "D:\\sample\\cosmos sdk prctice\\TokenICO\\contracts\\TokenICO.sol",
  "compiler": {
    "name": "solc",
    "version": "0.8.21+commit.d9974bed.Emscripten.clang"
  },
  "schemaVersion": "3.4.16",
  "updatedAt": "2024-06-26T07:23:18.858Z",
  "devdoc": {
    "errors": {
      "OwnableInvalidOwner(address)": [
        {
          "details": "The owner is not a valid owner account. (eg. `address(0)`)"
        }
      ],
      "OwnableUnauthorizedAccount(address)": [
        {
          "details": "The caller account is not authorized to perform an operation."
        }
      ]
    },
    "kind": "dev",
    "methods": {
      "owner()": {
        "details": "Returns the address of the current owner."
      },
      "renounceOwnership()": {
        "details": "Leaves the contract without owner. It will not be possible to call `onlyOwner` functions. Can only be called by the current owner. NOTE: Renouncing ownership will leave the contract without an owner, thereby disabling any functionality that is only available to the owner."
      },
      "transferOwnership(address)": {
        "details": "Transfers ownership of the contract to a new account (`newOwner`). Can only be called by the current owner."
      }
    },
    "version": 1
  },
  "userdoc": {
    "kind": "user",
    "methods": {},
    "version": 1
  }
}